:100000000C94B1000C94CE000C94CE000C94CE0055
:100010000C94CE000C94CE000C94CE000C94CE0028
:100020000C94CE000C94CE000C94CE000C94CE0018
:100030000C94CE000C94CE000C94D0000C94CE0006
:100040000C94CE000C94CE000C9463020C948F029E
:100050000C94CE000C94CE000C94CE000C94CE00E8
:100060000C94CE000C94CE0000407A10F35A00A0FD
:10007000724E18090010A5D4E80000E87648170071
:1000800000E40B54020000CA9A3B000000E1F505B1
:10009000000080969800000040420F000000A086FB
:1000A00001000000102700000000E803000000002D
:1000B0006400000000000A000000000001000000D1
:1000C00000002C76D888DC674F0823DFC1DFAE59EB
:1000D000E1B1B796E5E3E453C63AE651997696E87E
:1000E000E6C28426EB898C9B62ED407C6FFCEFBC02
:1000F0009C9F40F2BAA56FA5F490055A2AF75C932D
:100100006B6CF9676DC11BFCE0E40D47FEF520E662
:10011000B500D0ED902E0300943577050080841E45
:10012000080000204E0A000000C80C333333330FA0
:10013000986E12831141EF8D2114893BE65516CF3D
:10014000FEE6DB18D1844B381BF77C1D901DA4BB49
:10015000E424203284725E228100C9F124ECA1E5FE
:100160003D2711241FBECFEFD8E0DEBFCDBF11E089
:10017000A0E0B1E0EEEBFDE002C005900D92A631EB
:10018000B107D9F711E0A6E1B1E001C01D92A83690
:10019000B107E1F70E94FE000C94DD060C9400000C
:1001A0001F920F920FB60F9211248F939F938091FD
:1001B00016019091170101969093170180931601F3
:1001C0009F918F910F900FBE0F901F901895EAE7A7
:1001D000F0E0808187608083ACE7B0E08C91806440
:1001E0008C938081806880838081806480838C91FF
:1001F00086608C938C9180628C930895FF920F930C
:100200001F9384B5826084BD8AEF87BD80916E00A4
:10021000826080936E00789485B5856085BD8CE0A2
:100220000E942A0287E690E00E94B9020E94F30130
:100230000E94E70080E060E00E94E7017894FF24DC
:1002400080917A00F3948FEFF81651F480911801A1
:100250009091190101969093190180931801FF2440
:1002600080911801909119018F3F910549F7809174
:10027000780080931E012091790080911E01829563
:1002800086958695837090E030E0220F331F220F11
:10029000331F822B932B90931D0180931C0160913F
:1002A0001C0170911D0180E090E00E94330325E362
:1002B0003EE54AE35DE30E9470039B01AC0120939D
:1002C0001F0130932001409321015093220143E00C
:1002D00021E004E011E00E944B0480E060E00E9415
:1002E000E70180911C0190911D018436910520F455
:1002F00080E091E00E94100284E091E00E941002F0
:1003000084E060E00E94E70182E091E00E94100238
:10031000109219011092180180917A0080648093E4
:100320007A008ECF282F662311F0289A01C02898D2
:10033000299887B18F6087B998B1907F822F829575
:100340008F70892B88B92A9A00C02A982F70292B80
:1003500028B92A9A00C02A989F6098B908958823DE
:1003600011F0289A01C02898299A87B1807F87B90F
:100370002A9A00C096B12A9800C02A9A00C086B175
:100380008F709295907F2A98892B089580E00E9423
:10039000AF0187FDFBCF88E090E00197F1F780E0A7
:1003A0000E94AF0108951F93182F0E94C601812F4C
:1003B00060E00E9492011F9108951F93182F0E94E0
:1003C000C601812F61E00E9492011F91089566236A
:1003D00011F4805801C080540E94D30108950E94F6
:1003E000C60190E0089581E00E94D301089582E063
:1003F0000E94D30108951F93182F0E94C6011A303E
:1004000049F4803410F080E001C080E480580E94FC
:10041000D30104C0812F61E00E9492011F910895D1
:10042000CF93DF93EC0102C00E94FB0189918823E6
:10043000D9F7DF91CF910895CF93DF93EC0102C0FC
:100440000E94FB01FE01219684918823C9F7DF9168
:10045000CF9108951F93182F87B18F6087B9209A85
:10046000219A229A80E09AEF0197F1F7419A409AF7
:100470002A9A00C02A9880E09EE40197F1F72A9A10
:1004800000C02A9880E091E0FC013197F1F72A9AA8
:1004900000C02A98FC013197F1F740982A9A00C0D1
:1004A0002A980197F1F788E20E94D30188E00E9420
:1004B000D3010E94F30186E00E94D301812F0E94A4
:1004C000D3011F9108951F920F920FB60F9211241E
:1004D0002F938F939F93EF93FF939091C000209160
:1004E000C600E0916501EF5FEF7180916601E8174A
:1004F00011F482E008C0892F8871E0936501F0E073
:10050000ED5BFE4F208380936701FF91EF919F91F8
:100510008F912F910F900FBE0F901F9018951F92E3
:100520000F920FB60F9211248F939F93EF93FF9327
:100530009091630180916401981769F0E0916401E2
:10054000EF5FEF71E0936401F0E0ED5DFE4F8081BD
:100550008093C60005C08091C1008F7D8093C1004B
:10056000FF91EF919F918F910F900FBE0F901F9071
:1005700018959C011092630110926401109265011C
:100580001092660197FF04C082E08093C0003F771D
:100590003093C5002093C40088E98093C10086E0B1
:1005A0008093C2000895909165018091660198172B
:1005B00019F420E031E012C0E0916601EF5FEF71C5
:1005C000E0936601F0E0ED5BFE4F30812091670122
:1005D000922F80E0AC01430F511D9A01C90108958B
:1005E000282F909163019F5F9F71809164019817FC
:1005F000E1F3E92FF0E0ED5DFE4F2083909363017E
:100600008091C10080628093C1000895CF93DF93F1
:10061000EC0103C021960E94F00288818823D1F763
:10062000DF91CF910895CF93DF93EC0102C00E9438
:10063000F002FE01219684918823C9F7DF91CF91C2
:100640000895809165012091660190E04F96821B8C
:1006500091096FE170E00E94240408958091660181
:10066000809365010895E89409C097FB3EF4909546
:100670008095709561957F4F8F4F9F4F9923A9F07B
:10068000F92F96E9BB279395F6958795779567950A
:10069000B795F111F8CFFAF4BB0F11F460FF1BC04E
:1006A0006F5F7F4F8F4F9F4F16C0882311F096E9E1
:1006B00011C0772321F09EE8872F762F05C066238F
:1006C00071F096E8862F70E060E02AF09A95660F48
:1006D000771F881FDAF7880F9695879597F9089501
:1006E0000BD078C069D028F06ED018F0952309F0AF
:1006F0005AC05FC01124A2C07ED0A0F3959FD1F351
:10070000950F50E0551F629FF001729FBB27F00DBF
:10071000B11D639FAA27F00DB11DAA1F649F662714
:10072000B00DA11D661F829F2227B00DA11D621F63
:10073000739FB00DA11D621F839FA00D611D221F1D
:10074000749F3327A00D611D231F849F600D211D01
:10075000822F762F6A2F11249F5750408AF0E1F0A4
:1007600088234AF0EE0FFF1FBB1F661F771F881FED
:1007700091505040A9F79E3F510570F014C05EC0E3
:100780005F3FECF3983EDCF3869577956795B795D8
:10079000F795E7959F5FC1F7FE2B880F911D969502
:1007A000879597F9089597F99F6780E870E060E072
:1007B00008959FEF80EC089500240A9416161706FA
:1007C00018060906089500240A9412161306140642
:1007D00005060895092E0394000C11F4882352F0A5
:1007E000BB0F40F4BF2B11F460FF04C06F5F7F4F5D
:1007F0008F4F9F4F089557FD9058440F551F59F044
:100800005F3F71F04795880F97FB991F61F09F3FFD
:1008100079F087950895121613061406551FF2CF26
:100820004695F1DF08C0161617061806991FF1CF76
:1008300086957105610508940895E894BB2766279D
:100840007727CB0197F9089597FB092E07260AD041
:1008500077FD04D00CD006D000201AF47095619575
:100860007F4F0895F6F7909581959F4F0895AA1BA5
:10087000BB1B51E107C0AA1FBB1FA617B70710F08B
:10088000A61BB70B881F991F5A95A9F780959095BD
:10089000BC01CD010895EF92FF920F931F93F22FA9
:1008A000F02E47FD02C0E4E001C0E4E1242F33272D
:1008B00027FD309537FF03C0309521953F4F4F2DD1
:1008C000512F0F2FEE2E0E946C048F2D912F1F9110
:1008D0000F91FF90EF900895A9E0B0E0E2E7F4E017
:1008E0000C94AA066A01122FA02EBE2C2BE320170F
:1008F00018F42CE3922E02C0902E9394AE014F5F19
:100900005F4F27E0092D0E94CE05BC018981E82EAA
:10091000FF24C70189709070019711F4ADE209C0FE
:10092000B1FE02C0ABE205C0B0FC02C0A0E001C055
:10093000A0E2E3FE3BC0AA2311F423E001C024E0BF
:10094000211710F020E002C0121B212FEB2CB4FE67
:1009500002C0322F0AC0F601322F80E202C081931A
:1009600031503323E1F7C20ED11CAA2319F0F6014E
:10097000A1936F01F6013196E2FE05C09EE4D60117
:100980009C9381E404C09EE6D6019C9381E6119677
:100990008C9391833296DF01832F90E202C09D9366
:1009A00081508823E1F7E30FF11D40C0E2FE42C011
:1009B000AA2311F423E001C024E0211710F020E065
:1009C00002C0121B212FEB2CB4FE02C0922F0AC0D2
:1009D000F601922F80E202C0819391509923E1F7B2
:1009E000C20ED11CAA2319F0F601A1936F01F601E2
:1009F0003196E2FE08C089E4D6018C938EE411960C
:100A00008C9386E407C089E6D6018C938EE6119616
:100A10008C9386E681833296DF01892F20E202C023
:100A20002D9381508823E1F7E90FF11D10822EEFFD
:100A30003FEFAFC0161617061CF041E050E003C0B0
:100A4000AB014F5F5F4FAA2019F480E090E003C034
:100A50008A2D90E0019620E030E0AA2311F021E0F9
:100A600030E0240F351F280F391F812F90E0281701
:100A7000390714F020E002C0121B212F4B2D50E04B
:100A8000CA0180719070B4FC0DC0B3FC0BC0F601BC
:100A9000322F40E202C0419331503323E1F7C20EBE
:100AA000D11C01C0322FAA2319F0F601A1936F01C6
:100AB000892B11F0132F0AC0F601132F80E302C017
:100AC000819311501123E1F7C30ED11C092D060F9C
:100AD000BA8090E1892E912C8E209F20E4FE04C0E4
:100AE000F1E3BF1609F40150101614F001E003C041
:100AF000093008F008E09B0177FF02C020E030E0F9
:100B0000CB010196821B930BFE013196E80FF91F72
:100B10008EE2F82E3B01601A71088A2D90E044277E
:100B20005527481B590B8FEF2F3F380719F4D60173
:100B3000FD926D01621773072CF06216730614F4B0
:100B4000808101C080E32150304031962417350761
:100B500024F0D6018D936D01E6CF2617370749F4AF
:100B6000B5E3BB1528F0BB1621F48114910409F4F8
:100B700081E3F6018193D601812F90E202C09C931C
:100B8000815011968823D9F7E10FF11D108220E0E2
:100B900030E0C9012996EEE00C94C606283008F032
:100BA00027E03327DA01990F311D87FD9160009608
:100BB0006105710539F432602E5F3D9330E32A956B
:100BC000E1F708959F3F30F080387105610509F025
:100BD0003C5F3C5F3D93913008F08068911DDF934E
:100BE000CF931F930F93FF92EF92192F987F9695B3
:100BF000E92F96959695E90FFF27EE53FF4F99271A
:100C00003327EE24FF24A701E701059008940794F9
:100C100028F4360FE71EF81E491F511D660F771F77
:100C2000881F991F0694A1F70590079428F4E70EF2
:100C3000F81E491F561FC11D770F881F991F661F79
:100C40000694A1F70590079428F4F80E491F561F43
:100C5000C71FD11D880F991F661F771F0694A1F724
:100C60000590079420F4490F561FC71FD81F990FEE
:100C7000661F771F881F0694A9F784911095177037
:100C800041F0D695C79557954795F794E7941A95EF
:100C9000C1F7E8E6F0E068941590159135916591FB
:100CA000959105907FE27395E118F10A430B560B7D
:100CB000C90BD009C0F7E10CF11E431F561FC91F15
:100CC000D01D7EF4703311F48A95E6CFE89401507C
:100CD00030F0080F0AF40027021708F4202F23959C
:100CE000022F7A3328F079E37D932A95E9F710C033
:100CF0007D932A9589F6069497956795379517956C
:100D00001794E118F10A430B560BC90BD00998F060
:100D100023957E9173957A3308F070E37C932013CA
:100D2000B8F77E9170617D9330F0839571E37D9388
:100D300070E32A95E1F71124EF90FF900F911F9136
:100D4000CF91DF91992787FD909508952F923F923B
:100D50004F925F926F927F928F929F92AF92BF92CB
:100D6000CF92DF92EF92FF920F931F93CF93DF9377
:100D7000CDB7DEB7CA1BDB0B0FB6F894DEBF0FBED4
:100D8000CDBF09942A88398848885F846E847D8421
:100D90008C849B84AA84B984C884DF80EE80FD8023
:100DA0000C811B81AA81B981CE0FD11D0FB6F89499
:0E0DB000DEBF0FBECDBFED010895F894FFCF5A
:100DBE003000560069747320616C697665210000FD
:060DCE000000000000001F
:00000001FF
